:0701190002090000010800CB
:0B010E00EF1FAC0670011E4C70F622C3
:10000300758910758DFFE4F58BD2AFD2ABD28EC25A
:030013009080FEDC
:03001B000200AA36
:1000AA00C0E0C083C082C0D075D000C000C004C008
:1000BA0006C007E508C394FF5033780B760090FC1E
:1000CA00FFE4F07F02FE12010E3090FDC2957F0818
:1000DA007E0012010E90FCFFE0780BF6E6FFE50ABF
:1000EA002508F582E43509F583EFF00508758DFFDB
:1000FA00758B00D007D006D004D000D0D0D082D0E3
:04010A0083D0E0328C
:0300000002001EDD
:0C001E00787FE4F6D8FD75810B020065C8
:10002A00020003E493A3F8E493A34003F68001F2E9
:10003A0008DFF48029E493A3F85407240CC8C333D7
:10004A00C4540F4420C8834004F456800146F6DFA6
:10005A00E4800B0102040810204080900119E47E1C
:10006A00019360BCA3FF543F30E509541FFEE4939B
:10007A00A360010ECF54C025E060A840B8E493A362
:10008A00FAE493A3F8E493A3C8C582C8CAC583CA8D
:10009A00F0A3C8C582C8CAC583CADFE9DEE780BE45
:0101200000DE
:00000001FF
